:020000040800F2
:1000000000280020D91600086516000867160008A9
:10001000691600086B1600086D1600080000000045
:100020000000000000000000000000006F16000843
:10003000711600080000000073160008751600080D
:1000400021170008211700082117000821170008B0
:1000500021170008211700082117000821170008A0
:100060002117000821170008211700082117000890
:100070002117000821170008211700082117000880
:100080002117000821170008211700082117000870
:100090002117000821170008211700082117000860
:1000A0002117000821170008211700082117000850
:1000B0002117000821170008000000002117000880
:1000C00021170008000000000000000021170008B0
:1000D000000000007D160008211700080000000045
:1000E0002117000821170008211700080000000050
:1000F0000000000000000000000000000000000000
:0C01000000000000000000005FF808F1A3
:10010C0010B5054C237833B9044B13B10448AFF345
:10011C0000800123237010BD20000020000000008F
:10012C007C17000808B5034B1BB103490348AFF318
:10013C00008008BD00000000240000207C1700088F
:10014C0010B504460E4B18784FF47A73B3FBF0F3EA
:10015C000C4A1068B0FBF3F000F08EF868B90F2C65
:10016C0001D901200AE0002221464FF0FF3000F0B7
:10017C0041F8034B5C60002000E0012010BD00BF83
:10018C00000000201800002008B5074A136843F04F
:10019C0010031360032000F01BF80020FFF7D0FFC2
:1001AC0001F0FCF9002008BD00200240034A116850
:1001BC00034B1B780B441360704700BF40000020BA
:1001CC0000000020014B1868704700BF4000002061
:1001DC00074AD36823F4E0631B041B0C000200F4F1
:1001EC00E060184340F0BF6040F40030D0607047CE
:1001FC0000ED00E030B4174BDB68C3F30223C3F10E
:10020C000704042C28BF04241D1D062D18D9033BFC
:10021C004FF0FF3505FA04F421EA0401994005FA80
:10022C0003F322EA0303194300280BDB0901C9B2CB
:10023C0000F1604000F5614080F8001330BC70475D
:10024C000023E5E700F00F000901C9B2024B195475
:10025C00F4E700BF00ED00E014ED00E0002807DB40
:10026C0000F01F02400901239340024A42F820305B
:10027C00704700BF00E100E00138B0F1807F0AD286
:10028C00064B5860064AF02182F823100020986033
:10029C0007221A6070470120704700BF10E000E091
:1002AC0000ED00E008B590F82130022B03D00423B8
:1002BC008363012008BD0268136823F00E031360EA
:1002CC000268136823F0010313600368194A934210
:1002DC0014D0143293421FD0143293421ED01432D5
:1002EC0093421ED0143293421ED01432934202D049
:1002FC004FF0807203E04FF4801200E001220E4BAD
:10030C005A60012380F82130002380F82030436BA1
:10031C006BB198470020CDE71022F0E74FF48072C4
:10032C00EDE74FF48052EAE74FF48032E7E7002024
:10033C00C0E700BF0800024000000240044B00224E
:10034C00DA61044A136943F00103136101807047B9
:10035C0048000020002002401A4BDB6813F0100FFD
:10036C0027D0194AD36943F00203D3611023154AED
:10037C00D26812F0040F06D01349CA6942F0010288
:10038C00CA6143F004030F4AD26912F0010F09D07D
:10039C000D49CA6942F00402CA610A49CA6922F0CD
:1003AC000102CA6140F20112934204D0054AD360A3
:1003BC0070470023DBE7034AD36923F00103D361C1
:1003CC00704700BF002002404800002038B50446AA
:1003DC00FFF7F8FE0546174BDB6813F0010F0AD048
:1003EC00B4F1FF3FF7D00CB3FFF7ECFE401BA0427B
:1003FC00F1D9032019E00F4BDB6813F0200F02D06A
:10040C000C4B2022DA600B4BDB6813F0100F09D178
:10041C00084BDB6913F0010F04D1064BDB6813F0BA
:10042C00040F05D0FFF798FF012038BD0320FCE72F
:10043C000020FAE7002002402DE9F843254C247EE9
:10044C00012C44D01E4690460F460446214B0122F7
:10045C001A764CF25030FFF7B9FF034688BB012CDB
:10046C0008D0022C03D04FF00409002416E04FF002
:10047C000209FAE74FF00109F7E709B23844FFF730
:10048C005DFF4CF25030FFF7A1FF134B1D6925F0B7
:10049C0001051D610346A0B90134E4B24C4510D2EC
:1004AC0060002101C1F12003B1F1200228FA01F111
:1004BC0006FA03F341EA0301DFD446FA02F21143D0
:1004CC00DBE7044A002111761846BDE8F8830223C5
:1004DC00FAE700BF4800002000200240F0B482B0D0
:1004EC000026324668E0002D00F09780012D00D1E7
:1004FC00CE68FF2B00F2A5808446FF2B00F2A4806F
:10050C009500DCF800400F27AF4024EA070406FAF8
:10051C0005F52C43CCF800404C6814F0805F4AD0B1
:10052C005C4CA56945F00105A561A46904F00104C2
:10053C000194019C9508AF1C574C54F8274002F0CD
:10054C000307BF004FF00F0C0CFA07FC24EA0C0C4D
:10055C00524CA0427ED004F58064A0427CD004F5BD
:10056C008064A04274D00324BC4044EA0C040235DD
:10057C00494F47F825404C6814F4803F6ED0484DE5
:10058C002C681C432C604C6814F4003F6CD0444D18
:10059C006C681C436C604C6814F4801F6AD0404D2E
:1005AC00AC681C43AC604C6814F4001F68D03C4D24
:1005BC00EC682343EB6001320B6833FA02F465D02C
:1005CC000124944023409C42F5D14D68122D2ED02D
:1005DC0009D8022D28D086D9032D2ED0112D88D1E3
:1005EC00CE68043685E72F4FBD4216D00CD92E4F5E
:1005FC00BD4212D007F58037BD420ED0A7F580174B
:10060C00BD427FF476AF08E0A7F58017BD4204D059
:10061C0007F58037BD427FF46CAF8D687DB1012D3D
:10062C0008D04461082664E7CE68083661E7CE68D6
:10063C000C365EE7046108265BE7002659E70426C2
:10064C0057E700F1040C58E7A2F10805AD0058E794
:10065C00022489E7002487E7012485E7104D2C68E4
:10066C0024EA03042C608EE70D4D6C6824EA030425
:10067C006C6090E70A4DAC6824EA0304AC6092E726
:10068C00074DEC6824EA0303EB6094E702B0F0BC7E
:10069C00704700BF001002400000014000080140FC
:1006AC000004014000002110000031108368194241
:1006BC0001D1002070470120704712B90904016173
:1006CC00704701617047000082B0084B1B68084AF4
:1006DC00A2FB03235B0A00FB03F0019000BF019B0C
:1006EC005A1E0192002BF9D102B07047180000205D
:1006FC00D34D6210002800F0F58170B582B004462D
:10070C00036813F0010F2CD0AB4B5B6803F00C03A8
:10071C00042B1DD0A84B5B6803F00C03082B12D0E4
:10072C006368B3F5803F41D0002B55D103F1804372
:10073C0003F504331A6822F480321A601A6822F422
:10074C0080221A6037E09C4B5B6813F4803FE7D043
:10075C00994B1B6813F4003F03D06368002B00F027
:10076C00C381236813F0020F76D0934B5B6813F0B0
:10077C000C0F5FD0904B5B6803F00C03082B54D02C
:10078C002369002B00F08A808C4B01221A60FFF742
:10079C0019FD0546884B1B6813F0020F75D1FFF746
:1007AC0011FD401B0228F5D90320A0E1824A1368F1
:1007BC0043F480331360636843B3FFF703FD0546CE
:1007CC007D4B1B6813F4003FCBD1FFF7FBFC401BA8
:1007DC006428F5D903208AE1B3F5A02F09D0764B14
:1007EC001A6822F480321A601A6822F480221A6085
:1007FC00E1E703F18043A3F53C331A6842F480220D
:10080C001A601A6842F480321A60D4E7FFF7DAFCF7
:10081C000546694B1B6813F4003FA2D0FFF7D2FCCE
:10082C00401B6428F5D9032061E1634B5B6813F42A
:10083C00803FA5D1604B1B6813F0020F04D02369D5
:10084C00012B01D0012052E15B4A136823F0F8031D
:10085C00616943EAC1031360236813F0080F32D0B7
:10086C00A369002B5BD0564B01221A60FFF7AAFC40
:10087C000546514B5B6A13F0020F21D1FFF7A2FC26
:10088C00401B0228F5D9032031E14B4A136823F0B1
:10089C00F803616943EAC1031360DDE7474B0022AB
:1008AC001A60FFF78FFC0546434B1B6813F0020FD1
:1008BC00D2D0FFF787FC401B0228F5D9032016E1A4
:1008CC000120FFF701FF236813F0040F00F098805C
:1008DC00394BDB6913F0805F33D1374BDA6942F067
:1008EC008052DA61DB6903F080530193019B01258F
:1008FC00344B1B6813F4807F25D0E368012B36D072
:10090C00002B4CD103F1804303F504331A6A22F017
:10091C0001021A621A6A22F004021A622CE0284BB5
:10092C0000221A60FFF74EFC0546234B5B6A13F05E
:10093C00020FC8D0FFF746FC401B0228F5D9032054
:10094C00D5E00025D4E71F4A136843F48073136085
:10095C00FFF738FC06461B4B1B6813F4807FCCD189
:10096C00FFF730FC801B6428F5D90320BFE0124A46
:10097C00136A43F001031362E3687BB3FFF722FCB5
:10098C0006460D4B1B6A13F0020F38D1FFF71AFC09
:10099C00801B41F288339842F3D90320A7E0052B42
:1009AC0012D0054B1A6A22F001021A621A6A22F05E
:1009BC0004021A62E0E700BF00100240000042424D
:1009CC0080044242007000404C4B1A6A42F0040210
:1009DC001A621A6A42F001021A62CDE7FFF7F2FBC3
:1009EC000646464B1B6A13F0020F08D0FFF7EAFBD2
:1009FC00801B41F288339842F3D9032077E0E5B9A4
:100A0C00E369002B72D03D4A526802F00C02082AAE
:100A1C0056D0022B17D03A4B00221A60FFF7D2FBAC
:100A2C000446364B1B6813F0007F47D0FFF7CAFB18
:100A3C00001B0228F5D9032059E0304AD36923F072
:100A4C008053D361DCE72E4B00221A60FFF7BAFB10
:100A5C0005462A4B1B6813F0007F06D0FFF7B2FB4C
:100A6C00401B0228F5D9032041E0236AB3F5803FEF
:100A7C001AD022494B6823F47413226A606A024329
:100A8C0013434B601E4B01221A60FFF79BFB04467D
:100A9C001A4B1B6813F0007F0ED1FFF793FB001B62
:100AAC000228F5D9032022E0144A536823F40033BA
:100ABC00A1680B435360DCE7002018E0002016E02F
:100ACC00012B16D00D4B5B6803F48031226A9142E6
:100ADC0001D001200BE003F47013626A93420AD038
:100AEC00012004E001207047012000E0002002B04A
:100AFC0070BD0120FBE70020F9E700BF00100240A9
:100B0C006000424210B487B0164C94E80F000DF10F
:100B1C00180C0CE90F00238AADF80430124B5B68FB
:100B2C0003F00C02082A1AD1C3F38342624412F870
:100B3C00102C13F4803F05D10C4800FB02F007B0D9
:100B4C0010BC7047084B5B68C3F34043634413F815
:100B5C00143C074800FB02F0B0FBF3F0EFE704484D
:100B6C00EDE700BF941700080010024000093D009B
:100B7C0000127A00002800F0A38070B50446524B96
:100B8C001B6803F007038B420CD24F4A136823F007
:100B9C0007030B431360136803F007038B4201D068
:100BAC00012070BD236813F0020F17D013F0040F4F
:100BBC0004D0464A536843F4E0635360236813F04F
:100BCC00080F04D0414A536843F4605353603F4AC2
:100BDC00536823F0F003A068034353600D46236869
:100BEC0013F0010F31D06368012B20D0022B25D0DC
:100BFC00364A126812F0020F64D034494A6822F067
:100C0C00030213434B60FFF7DDFA06462F4B5B687C
:100C1C0003F00C036268B3EB820F16D0FFF7D2FA25
:100C2C00801B41F288339842F0D90320B9E7274A58
:100C3C00126812F4003FE0D10120B2E7234A126897
:100C4C0012F0007FD9D10120ABE71F4B1B6803F0DA
:100C5C000703AB420CD91C4A136823F007032B4340
:100C6C001360136803F00703AB4201D0012098E72F
:100C7C00236813F0040F06D0144A536823F4E0637E
:100C8C00E1680B435360236813F0080F07D00F4A39
:100C9C00536823F46053216943EAC1035360FFF79F
:100CAC0031FF0A4B5B68C3F30313094AD35CD8408A
:100CBC00084B1860084B1868FFF742FA002070E7E1
:100CCC000120704701206CE7002002400010024018
:100CDC00A81700081800002004000020014B186819
:100CEC00704700BF1800002008B5FFF7F7FF044B52
:100CFC005B68C3F30223034AD35CD84008BD00BF32
:100D0C0000100240B817000808B5FFF7E7FF044BC6
:100D1C005B68C3F3C223034AD35CD84008BD00BF51
:100D2C0000100240B81700080268D36823F49073CF
:100D3C00D3600268536923F001035361202380F8C8
:100D4C003A30704790F83930DBB2212B2CD18368C4
:100D5C00B3F5805F18D0036A5A1C026293F9003015
:100D6C000268DBB25360C38C013B9BB2C384EBB90A
:100D7C000268D36823F08003D3600268D36843F021
:100D8C004003D36000207047036A1B880268C3F3DA
:100D9C000803536003691BB9036A02330362E2E779
:100DAC00036A01330362DEE70220704700207047BC
:100DBC0038B504460268136923F44053C1680B43E9
:100DCC00136183680269134342691A430168CB6853
:100DDC0023F4B05323F00C031343CB600268536924
:100DEC0023F4407381690B4353610268214B9A428F
:100DFC001FD0FFF779FF00EB800000EB80006368E9
:100E0C009B00B0FBF3F01C4DA5FB00325109642292
:100E1C0002FB110213013233A5FB03235B0903F020
:100E2C00F00202EB011203F00F03216813448B60F4
:100E3C0038BDFFF769FF00EB800000EB80006368B2
:100E4C009B00B0FBF3F00C4DA5FB00325109642262
:100E5C0002FB110213013233A5FB03235B0903F0E0
:100E6C00F00202EB011203F00F03216813448B60B4
:100E7C00DEE700BF003801401F85EB512DE9F04142
:100E8C0005460F4616469846069C2B681B6837EAA3
:100E9C0003030CBF01230023B3421DD1B4F1FF3F68
:100EAC00F3D02CB1FFF78EF9A0EB0800A042ECD9DF
:100EBC002A68D36823F4D073D3602A68536923F06B
:100ECC0001035361202385F8393085F83A3000232B
:100EDC0085F83830032000E00020BDE8F0810028C0
:100EEC0030D010B5044690F8393033B3242384F84D
:100EFC0039302268D36823F40053D3602046FFF7BF
:100F0C0057FF2268136923F49043136122685369D5
:100F1C0023F0220353612268536943F008035361A1
:100F2C002268D36843F40053D3600020E06320238D
:100F3C0084F8393084F83A3010BD80F8383000F03D
:100F4C004FFBD3E7012070472DE9F04182B01E46DC
:100F5C0090F83930DBB2202B55D104460D46904623
:100F6C00002955D0002A55D090F83830012B53D099
:100F7C00012380F838300023C363212380F83930F3
:100F8C00FFF720F90746A4F82480A4F8268010E087
:100F9C0000963B46002280212046FFF76FFF002879
:100FAC003CD12B882268C3F3080353602369C3B96F
:100FBC000235E38C9BB2B3B1E38C013B9BB2E3846F
:100FCC00A368B3F5805FE3D000963B4600228021F6
:100FDC002046FFF753FF18BB2A7823685A60013567
:100FEC00E7E70135E5E700963B4600224021204625
:100FFC00FFF744FF0346A8B9202284F839200022C9
:10100C0084F8382000E00223184602B0BDE8F081D5
:10101C000123F9E70123F7E70223F5E70323F3E7BD
:10102C000323F1E70323EFE790F83930DBB2202BF1
:10103C0016D1B9B1C2B190F83830012B16D001627B
:10104C008284C2840023C363212280F8392080F873
:10105C0038300168CA6842F08002CA60184670478E
:10106C000220704701207047012070470220704712
:10107C0008B50168CB6823F04003CB60202380F8CF
:10108C00393000F001FA002008BD704708B590F81F
:10109C003A30DBB2222B45D18368B3F5805F0ED09A
:1010AC00036903BB03685A68836A591C81621A700E
:1010BC00C38D013B9BB2C385F3B1002033E0826A40
:1010CC00036943B903685B68C3F308031380836A3D
:1010DC0002338362ECE703685B68DBB21380836ADC
:1010EC0001338362E4E703685B68826A511C8162A6
:1010FC0003F07F031370DBE70268D36823F020034F
:10110C00D3600268D36823F48073D3600268536998
:10111C0023F001035361202380F83A30FFF7B5FF29
:10112C00002000E0022008BD7047000010B5044606
:10113C0002681368D168526913F00F0005D113F0DF
:10114C00200F02D011F0200F53D1002867D012F0DD
:10115C00010202D111F4907F61D013F0010F06D07F
:10116C0011F4807F03D0E06B40F00100E06313F0DA
:10117C00040F04D01AB1E06B40F00200E06313F0EE
:10118C00020F04D01AB1E06B40F00400E06313F0DE
:10119C00080F04D01AB1E26B42F00802E263E26B72
:1011AC00002A48D013F0200F02D011F0200F24D1C8
:1011BC0023685B6903F04003E26B12F0080F00D167
:1011CC003BB32046FFF7B0FD23685A6912F0400F7D
:1011DC001BD05A6922F040025A61636B8BB11A4AD8
:1011EC005A63606BFFF75EF828B3606B436B9847EC
:1011FC0021E02046FFF74AFF1DE02046FFF746FF9F
:10120C00D6E72046FFF790FF15E02046FFF78CFF4E
:10121C0011E02046FFF788FF0023E3630BE013F097
:10122C00800F02D011F0800F06D113F0400F02D0C6
:10123C0011F0400F04D110BD2046FFF783FDFAE7F3
:10124C002046FFF715FFF6E75912000808B5406A6B
:10125C000023C385C384FFF767FF08BD70B586B054
:10126C00002402940394049405941B4B9A6942F055
:10127C0004029A619A6902F004020092009A9A6937
:10128C0042F008029A619B6903F008030193019BE9
:10129C00124D012220212846FFF70FFA3C2302931E
:1012AC0003940126049602A90D48FFF717F94FF68F
:1012BC00107302930394049402A92846FFF70EF9C5
:1012CC0020230293039604940223059302A9284633
:1012DC00FFF704F906B070BD00100240000C01408D
:1012EC000008014008B50848084B03604FF416632A
:1012FC00436000238360C36003610C2242618361FD
:10130C00C361FFF7ECFD08BD680000200038014008
:10131C00F8B507460E461546002406E03257D3179B
:10132C00E1190120FFF788F80134A542F6DCF8BD7D
:10133C00008800B27047000070B50024264600E01B
:10134C000134104B1B7BA3421BDD0E4D286800EBB8
:10135C004400FFF7EDFFAB88C01A80B202B200F573
:10136C00FF407F3080B24FF6FD739842E8D8A968F1
:10137C0012B2D31701EB46010120FFF75DF80136DD
:10138C00DEE770BD0800002038B5204D4FF48071A9
:10139C002846FFF78BF944B24FF400712846FFF74B
:1013AC0085F944EA400464B24FF480612846FFF7A3
:1013BC007DF944EA800464B24FF400612846FFF7DB
:1013CC0075F944EAC00464B24FF480512846FFF723
:1013DC006DF944EA001464B24FF400512846FFF74B
:1013EC0065F944EA401464B24FF480412846FFF793
:1013FC005DF944EA801464B24FF400412846FFF7CB
:10140C0055F944EAC01040B238BD00BF000C014091
:10141C00B0B500AF1A4B1B7B5B00073303F47E7334
:10142C00ADEB030D6D46002220211648FFF745F960
:10143C0000240FE010211348FFF738F90028F9D1E8
:10144C0010211048FFF732F90028F9D0FFF79CFF64
:10145C00285501340A4B1B7BB4EB430FEADB01220A
:10146C0020210848FFF729F9054B1A7B520002F09E
:10147C00FE0229461868FFF74BFFBD46B0BD00BF02
:10148C0008000020000C014008B502680D4B9A4280
:10149C0000D008BD0C4B1A780C4B1B7B5B00013B3E
:1014AC009A42F6DA094B98681044FFF741FF012283
:1014BC0041B20748FFF7B8FD034A137801331370A4
:1014CC00E7E700BF003801403C0000200800002086
:1014DC006800002010B590B02422002107A800F06D
:1014EC003FF900240194029403940494059402237C
:1014FC00069301230A9310230B9306A8FFF7FAF81F
:10150C000F2301930294039404940594214601A89B
:10151C00FFF730FB10B010BD10B582B0FEF734FEF3
:10152C00FFF7D8FFFFF79AFEFFF7DCFE04211948FE
:10153C00FFF7BCF80028F9D008211648FFF7B6F8D9
:10154C000028F3D010211348FFF7B0F80028EDD194
:10155C00202100F1804000F58430FFF7A7F8002827
:10156C00E4D0FFF755FFFFF7E7FE00240FE004F18E
:10157C00005000F5C070FFF7DBFE02A901F8010D69
:10158C004FF47A7301220448FFF7DEFC0134072C78
:10159C00EDDDFEE7000801406800002082B00E4B34
:1015AC009A6942F001029A619A6902F00102009272
:1015BC00009ADA6942F08052DA61DB6903F08053F9
:1015CC000193019B054A536823F0E06343F0806369
:1015DC00536002B0704700BF001002400000014091
:1015EC0000B587B00023029303930493059302681C
:1015FC00174B9A4202D007B05DF804FB03F5584331
:10160C009A6942F480429A619A6902F4804200928B
:10161C00009A9A6942F004029A619B6903F00403F0
:10162C000193019B4FF40073029312230393012344
:10163C0004930323059302A90648FEF74FFF0022EB
:10164C0011462520FEF7D6FD2520FEF707FED2E732
:10165C0000380140000801407047FEE7FEE7FEE756
:10166C00FEE770477047704708B5FEF79FFD08BD51
:10167C0008B50248FFF75AFD08BD00BF68000020FE
:10168C000F4B1A6842F001021A6059680D4A0A4061
:10169C005A601A6822F0847222F480321A601A6836
:1016AC0022F480221A605A6822F4FE025A604FF427
:1016BC001F029A60044B4FF000629A60704700BFA3
:1016CC00001002400000FFF800ED00E0002103E0F4
:1016DC000B4B5B58435004310A480B4B42189A424F
:1016EC00F6D30A4A02E0002342F8043B084B9A4224
:1016FC00F9D3FFF7C5FF00F00FF8FFF70DFF7047A8
:10170C00C8170008000000201C000020200000204A
:10171C00A8000020FEE7000070B500250C4E0D4C13
:10172C00A41BA410A54209D100F022F800250A4EF2
:10173C000A4CA41BA410A54205D170BD56F8253047
:10174C0098470135EEE756F8253098470135F2E712
:10175C00C0170008C0170008C0170008C4170008FD
:10176C0003460244934200D1704703F8011BF9E78A
:10177C00F8B500BFF8BC08BC9E467047F8B500BF72
:08178C00F8BC08BC9E46704742
:1017940002030405060708090A0B0C0D0E0F1010AE
:1017A4000102000000000000000000000102030428
:0C17B40006070809000000000102030401
:0417C00031010008EB
:0417C4000D0100080B
:1017C8000100000010000000600100202244000019
:0C17D80080010020040000000024F40048
:04000005080016D900
:00000001FF
